:020000040800F2
:10000000000003205D0600082525000827250008BC
:10001000292500082B2500082D25000800000000D8
:10002000000000000000000000000000A1690008BE
:100030002F25000800000000316A0008BF62000898
:10004000AD060008AD060008AD060008AD060008C4
:10005000AD060008AD060008AD060008AD060008B4
:10006000AD060008AD060008AD060008AD060008A4
:10007000AD060008AD060008AD060008AD06000894
:10008000AD060008AD060008AD060008AD06000884
:10009000AD060008AD060008AD060008AD06000874
:1000A000AD060008AD060008AD060008AD06000864
:1000B000AD060008AD060008AD060008AD06000854
:1000C000AD060008AD060008AD060008AD06000844
:1000D000AD060008AD060008AD060008AD06000834
:1000E000AD060008AD060008AD060008AD06000824
:1000F000AD060008AD060008AD060008AD06000814
:10010000AD060008AD060008AD060008AD06000803
:10011000AD060008AD06000831250008AD06000850
:100120003D250008AD060008AD060008AD06000834
:10013000AD060008AD060008AD060008AD060008D3
:10014000AD060008AD060008AD060008AD060008C3
:10015000AD060008AD060008AD060008AD060008B3
:10016000AD060008AD060008AD060008AD060008A3
:10017000AD060008AD060008AD060008000000004E
:10018000AD060008AD060008AD060008AD06000883
:10019000AD060008AD060008AD060008AD06000873
:0C01A00049250008AD06000855250008A0
:1001B00010B5054C237833B9044B13B10448AFF3A1
:1001C00000800123237010BD800300200000000088
:1001D000E813020808B5034B1BB103490348AFF30A
:1001E000008008BD0000000084030020E81302081E
:1001F00001F0FF01102A2BDB10F0070F08D010F8D8
:10020000013B013A8B422DD010F0070F42B3F6D1DB
:10021000F0B441EA012141EA014122F007047FF0F4
:1002200000070023F0E80256083C85EA010586EA4B
:10023000010685FA47F5A3FA87F586FA47F6A5FA87
:1002400087F68EB9EED1F0BC01F0FF0102F0070293
:1002500032B110F8013B013A83EA010313B1F8D13E
:100260000020704701387047002D06BF354603381F
:10027000073815F0010F07D1013015F4807F02BF58
:10028000013015F4C03F0130F0BC0138704700BFA9
:100290007BB972B90029BEBF00204FF0004106E0D3
:1002A00008BF00281CBF6FF000414FF0FF3000F086
:1002B000D3B9ADF1080C6DE904CE002909DB002BA0
:1002C0001ADB00F04DF8DDF804E0DDE9022304B0AC
:1002D0007047404261EB4101002B1BDB00F040F80E
:1002E000DDF804E0DDE9022304B0404261EB4101A6
:1002F000524263EB43037047524263EB430300F007
:100300002FF8DDF804E0DDE9022304B0404261EBA0
:1003100041017047524263EB430300F021F8DDF8DE
:1003200004E0DDE9022304B0524263EB430370476B
:1003300053B94AB9002908BF00281CBF4FF0FF314C
:100340004FF0FF3000F088B9ADF1080C6DE904CE34
:1003500000F006F8DDF804E0DDE9022304B07047A0
:100360002DE9F047089D8E4604468846002B4AD169
:100370008A42174662D9B2FA82F64EB1C6F120031C
:1003800001FA06F820FA03F3B74043EA0808B4403C
:100390004FEA174E1FFA87FCB8FBFEF1230C0EFB49
:1003A000118843EA084301FB0CF29A4209D9FB1871
:1003B00001F1FF3080F0EA809A4240F2E780023992
:1003C0003B449A1AA3B2B2FBFEF00EFB102243EAA2
:1003D000024300FB0CFC9C4509D9FB1800F1FF32DD
:1003E00080F0D6809C4540F2D3803B44023840EAFE
:1003F0000140A3EB0C0300211DB1F3400022C5E92D
:100400000032BDE8F0878B4205D90DB1C5E9000186
:1004100000210846F5E7B3FA83F1002946D1734578
:1004200002D3824200F20581841A6EEB030201209E
:100430009046002DE5D0C5E90048E2E7002A00F02B
:100440009080B2FA82F6002E40F0A4808A1A030C43
:100450004FEA174E80B2BCB20121B2FBFEFC0EFB8C
:100460001C2243EA024304FB0CF29A4207D9FB1810
:100470000CF1FF3802D29A4200F2E080C4469B1A87
:10048000B3FBFEF20EFB123340EA034302FB04F41B
:100490009C4207D9FB1802F1FF3002D29C4200F2C5
:1004A000CA8002461B1B42EA0C40A5E7C1F12006A8
:1004B0008B4022FA06F71F430EFA01F420FA06F3E6
:1004C0002EFA06FE4FEA1749234300FA01F81FFAF5
:1004D00087FCBEFBF9F01C0C09FB10EE44EA0E444D
:1004E00000FB0CFEA64502FA01F209D93C1900F105
:1004F000FF3A80F09C80A64540F2998002383C4447
:10050000A4EB0E041FFA83FEB4FBF9F309FB1344BA
:100510004EEA044403FB0CFCA44508D93C1903F142
:10052000FF3E80F08280A4457FD9023B3C4443EAF1
:100530000040A4EB0C04A0FB02EC64457346E146CA
:1005400062D35FD05DB1B8EB030264EB090404FA37
:1005500006F622FA01F31E43CC40C5E900640021EF
:100560004FE7B1FBF2FC010C41EA0E4180B240EAD8
:1005700001423B4638463C46B846BE462026B1FBC3
:10058000F7F1A2EB080241EA0C4166E7014618E7E1
:1005900010462CE7C6F120022EFA02F3B740B14014
:1005A00020FA02F24FEA174E0A43B3FBFEF8BCB240
:1005B0000EFB1833110C41EA034108FB04F9B0406B
:1005C00089454FEA104380B23ED9791808F1FF3CC3
:1005D00001D289451FD8A1EB0901B1FBFEF909FB46
:1005E00004F80EFB191192B242EA0142424529D2A7
:1005F000BA1809F1FF31C4D24245C2D2A9F10201B1
:100600003A44BEE7F0459DD2BEEB02036CEB070C0B
:100610000138E14696E7A7EB09094944A8F1020C25
:10062000B1FBFEF909FB04F8DBE773467FE75046B0
:1006300066E70846FDE63B44023A33E7ACF1020CBC
:100640003B441CE749469CE7A1EB0901C446B1FBCA
:10065000FEF909FB04F8C4E7704700BFDFF834D0A7
:10066000002103E00C4B5B58435004310B480C4B0A
:1006700042189A42F6D30B4A02E0002342F8043BA8
:10068000094B9A42F9D302F0B5FE20F03FF901F090
:100690005FF870470000032030310208000000209E
:1006A00064010020800300203C350120FEE77047F4
:1006B00008B500F0B7FDBDE8084000F03BBD00F014
:1006C000B3BD704710B5042104461EF0D4FE204689
:1006D00010BD000038B50C4B0C4C18800C4B822020
:1006E00019806368984740F6110398420AD1094D72
:1006F00023682C60822098472B688220DB6898470B
:10070000002038BD0120FCE7A60300204C0000209B
:10071000A4030020A80300204FF4A071F020FFF7ED
:10072000D9BF0000F7B5394D2B6804461B698220FC
:100730009847208000284ED02B680DF106025B6997
:1007400001A982209847324B1B78002B4BD0BDF873
:10075000062040F674639A423FD9ADF80630BDF8E2
:1007600006209B1A9BB20A2B42D90B22B3FBF2F351
:10077000284A1288934201D9013A93B2BDF8042065
:10078000254840F6B8318A4234D8C2F571620E323B
:10079000016892B20F25B2FBF5F2204D2D88AA42D6
:1007A00084BF05F1FF35AAB28A4215468EB22AD916
:1007B000921B91B21A4E3768BB42BAB28CBF9A1ADA
:1007C000D21A92B211440529C4BF05603360036890
:1007D00063803368A38003B0F0BDB32A9CBFB4220A
:1007E000ADF80620BBE7BDF80630A3F5B473B9E752
:1007F0000023C3E7C2F56D62083292B20E2A016887
:10080000C8D800252A46891A89B2D3E7A803002050
:10081000A4150020A4030020A0030020A6030020AC
:100820009C03002037B568460D461446FFF77AFF53
:10083000BDF8000030B1BDF802302B60BDF80430C7
:100840002360012003B030BD032821D8DFE800F089
:10085000020B12190F4B1A68B2FA82F252090421E4
:100860000D4803F017BB0B4B5A68B2FA82F25209DB
:100870000821F5E7074B9A68B2FA82F25209102173
:10088000EEE7044BDA68B2FA82F252092021E7E778
:10089000704700BFAC03002000100240032821D89D
:1008A000DFE800F0020B12190F4B1A68003A18BF6C
:1008B000012204210D4803F0EDBA0B4B5A68003AAF
:1008C00018BF01220821F5E7074B9A68003A18BFC4
:1008D00001221021EEE7044BDA68003A18BF01222A
:1008E0002021E7E7704700BFAC0300200010024062
:1008F00003280DD8DFE800F00206080A04210548A5
:1009000003F0CDBA0821FAE71021F8E72021F6E735
:10091000704700BF0010024008B5032811D8DFE877
:1009200000F0020A0C0E0421074803F0ADFA431E42
:100930005842584108BD0821F6E71021F4E720216C
:10094000F2E70020F3E700BF0010024070B5084D49
:1009500000240126E0B2FFF7DFFF18B12B68012B5E
:1009600018BF2E600134052C05F10405F2D170BDCD
:10097000AC030020012380F8781080F879307047AC
:100980007047002070470000034B4164003918BFD6
:1009900001211970704700BFFB270120704700201C
:1009A0007047836B0BB10846184770474FF6FF70CE
:1009B0007047406803689B691847704770477047E5
:1009C0007047704710B5044600F044FD23680349A2
:1009D000D3F890302046BDE810401847000000D002
:1009E00008B503680446D3F8843098472368204646
:1009F000DB6F984700F0ECF8236820465B6F984760
:100A0000292001F0D5F900F0E3F8236820465B6F58
:100A10009847F8E710B5044608F0EAFD2368204639
:100A2000D3F8BC30BDE81040184700F0F7BC00F028
:100A3000FBBC00F02DBD00F0CDBC00F03DBD00F0D2
:100A400045BD00F0D1BC07F0F3BF10B584210446CA
:100A50001EF011FD204610BD10B590F8341090F82E
:100A600078400C4B8C421A7809D03AB90A4A0B49A3
:100A70001488088810800C8001221A7010BD002A8A
:100A8000FCD0054A05491488088810800C80002293
:100A9000F3E700BFF4270120F0270120F22701200F
:100AA00070B50D46194635B9094B0A4A0A4840F255
:100AB000FF211FF01DFCC0E90F52084B003A18BF80
:100AC00001221A700368BDE87040D3F890301847CF
:100AD0005814020890140208DE140208FA270120B4
:100AE00008B5094B1B888B4203D8084B1B889342DF
:100AF00005D9074B074A0848A3211FF0F9FB074B0C
:100B00001980074B1A8008BDF0270120F227012029
:100B10002315020886150208DE140208F6270120B4
:100B2000F8270120034690F87A0018B15868036846
:100B30001B68184770470000012108B500220846CD
:100B400005F046FC0A4B186028B90A4B0A4A2821CE
:100B50000A481FF0CDFB00220421012005F0D7FC3C
:100B6000074B186018B9074B034A2C21F0E708BD62
:100B7000C0030020C9150208121602084116020817
:100B8000BC030020CB160208024B4FF0FF3118685F
:100B900005F068BCC0030020014B186805F08EBC4E
:100BA000C0030020024B0021186805F05BBC00BFA9
:100BB000C0030020FFF7F0BF03480449006800238A
:100BC0001A4605F0DFBC00BFBC0300200400002073
:100BD00013B5084C00231A4601A9206805F003FD4F
:100BE00020684FF0FF33002201A905F0FCFC02B0A1
:100BF00010BD00BFBC03002003685B6C18470120D8
:100C0000704703689B6A1847FEE740F2EF30704771
:100C1000054B0360054B4FF08062C3F88820BFF39B
:100C20004F8FBFF36F8F7047FC1F020800E100E099
:100C300010B504464FF45A61FFF7EAFF20461EF054
:100C40001AFC204610BD000082B0002301930E4B19
:100C50001A6B42F400021A631A6B02F4000201924A
:100C6000019A1A6942F400021A611A6922F4000218
:100C70001A61064B064A1A61064A5A61064B4FF042
:100C800080629A6002B0704700380240C8170020A6
:100C9000E90E0008090C000800E100E008B50A2888
:100CA00009D8DFE800F006100E0808080810101038
:100CB0001000022008BD054B054A064890211FF090
:100CC00017FB0020F6E70120F4E700BF0D1702082C
:100CD000281702087317020838B50C46887FFFF7FB
:100CE000DDFFA58AE28A164B2169586342EA054274
:100CF0005A64628BD963521B1A642568082D0ED181
:100D00009A611A615862207F0E4A42EA0062DA61F3
:100D1000E2681A620C4A5961D9601A6038BD002233
:100D2000D8611A61E1680A0A480902F4784200F4BD
:100D3000FC600243C1F3C4010A439A63034AECE72F
:100D400000B002400900010001230200012303005A
:100D500008B50B280BD8DFE800F00612100A0A0AC3
:100D60000A0808080808022008BD0520FCE7054B12
:100D7000054A06486F211FF0BBFA0020F4E7012066
:100D8000F2E700BF0D170208FB17020873170208ED
:100D90002DE9F04191F81D800C464046FFF7D8FF41
:100DA000A77F05463846FFF7D3FF06463846FFF7CC
:100DB00075FFA18A628B444B521A1A649A61228B86
:100DC000521A1A61E28A586342EA01425A6421695E
:100DD0006268D963DA602068802828D0227F0FD823
:100DE000202867D0402865D004281AD0364B45EA21
:100DF000026545F40035B845DD6161D0334A44E011
:100E0000B0F5807F04D0B0F5007FEFD1304800E02E
:100E1000304840EA0262DA61E2681A625E62596151
:100E200032E045EA026242F40032DA61F6E7A06895
:100E3000021DDA62227F45EA026545F40035DD6174
:100E40005E625961017841B1012921D0224B234AC8
:100E500023484FF48D711FF04BFADA69418822F470
:100E60007F42013922F0100242EA0122DA610121B7
:100E7000154BDA6942F02002DA61DA699206FCD495
:100E800010229A600029B9D0164A1A60BDE8F08194
:100E9000B2F1FF01DA69408822F47F4200F1FF30AD
:100EA00022F0100242EA002242F0100218BF012193
:100EB000DA61DDE745EA0262034B42F40032B4E74F
:100EC00042F20132E1E700BF00B00240012301001D
:100ED000090002000A000200451802085F18020813
:100EE0007317020801230200024B1B68586803684D
:100EF0005B691847FC27012070B5044625460A4B5C
:100F00000C30002660602672667245F8203B602235
:100F1000294608F0C3FC04F55A63EE6024359D426F
:100F2000FBD1204670BD00BFFC1F0208034B1A68AE
:100F3000D207FCD423229A60704700BF00B0024061
:100F40007047000030B50F4C2568ED07FCD4232511
:100F50000904A56041F001010225FF2B656361646E
:100F6000E0630AD00849656241EA0363E361074B25
:100F700022626061E060236030BDE561039BA36392
:100F8000034BF8E700B00240090001000100020035
:100F90000100030030B50E4C2568ED07FCD4232575
:100FA0001204A56042F001020225FF2B6563626412
:100FB000E063E16008D01B0643F00213E361054BD8
:100FC00065626061236030BD034BE3610123F9E793
:100FD00000B0024001000200020002FF30B50B4CDD
:100FE0002568ED07FCD4232512041B06A56043F4F5
:100FF0000033022542F0010265636264E063E16050
:10100000E361034B65626061236030BD00B0024064
:1010100001000200012070470C2070470C2303FBE5
:101020000100083070470C2303FB010008307047B3
:101030000120704798207047982303FB0100083077
:101040007047982303FB0100083070470120704768
:101050001020704700EB01100830704700EB0110C2
:1010600008307047084601F065BC000010B5034B1E
:101070000360044607F031FA204610BDB420020890
:1010800010B50446FFF7F2FF204614211EF0F3F9D5
:10109000204610BD10B5034B0360044607F01DFA4F
:1010A000204610BD8020020810B50446FFF7F2FF6D
:1010B0002046A0211EF0DFF9204610BD10B5034BDD
:1010C0000360044607F009FA204610BD4C200208D0
:1010D00010B50446FFF7F2FF204618211EF0CBF9A9
:1010E000204610BD10B5084B044640F8CC3BFFF736
:1010F000BDFF04F12C00FFF7CDFF04F11400FFF752
:10110000DDFF204610BD00BFE820020808B50248F8
:10111000FFF7E8FF08BD00BF9C12002010B5044691
:10112000FFF7E0FF20464FF410711EF0A4F92046AF
:1011300010BD00002DE9F34101F080FA054601F0F1
:1011400081FA0024014623462846224600940FF0E7
:10115000FFF8274B274A1A60204601F0F7FD264D7D
:10116000264B274A27489A600FF05AF82B68BFF39E
:101170005B8FDB0735D428461EF07FF988B3224CFD
:10118000224B236004F1E40604F1140004F12C085E
:1011900004F1CC076060C4F80880E760266107F0BE
:1011A0009DF91B4B6361404607F098F9194BE362C8
:1011B000384607F093F9184BC4F8CC3004F1E0003E
:1011C00001F03AFE224604F1E001304601F02AFE29
:1011D000304601F0AFFB11481FF0A8F828461EF07A
:1011E00058F90F4802B0BDE8F041FFF7EBBB00BF74
:1011F0006028012048040020981200206804002084
:101200004C040020080000209C120020E820020866
:101210004C20020880200208B42002080D110008AA
:10122000C4030020704700000148FFF7D9BB00BF8E
:10123000C403002070B5264E264C274D274B236053
:101240003046FFF759FE284614F088F924480DF07F
:1012500071F9244B2448DC6000224FF48071C3E90B
:10126000121222491A86C3E91A12214983F858201A
:10127000C3E91E011F49C3F880101F491F480B60B6
:10128000F021C3E90422C3E90622C3E90822C3E925
:101290000A22C3E90E22C3E91022C3E91422C3E9DA
:1012A00017225A6683F870205A67C3E901650180E6
:1012B0001348018013484FF4A07101801248018047
:1012C00012490A70012283F83420114A1A6070BD55
:1012D000F40400209412002068040020481402083E
:1012E0004C040020C40300200000010101000001A3
:1012F000000450001A001400FC270120F0270120F0
:10130000F6270120F2270120F8270120F4270120E9
:10131000101F02080148FFF77BBC00BFF404002047
:101320000020704781807047C180704701817047FD
:10133000418170477047704770477047704710B4DD
:10134000C4880368121B84885B6D091B12B25DF8A8
:10135000044B09B218474FF6FF7383814FF0FF33F8
:1013600003621368C36110607047002070478B8868
:10137000838001207047704780F82610704790F8EE
:101380002600704710B50022B1F90840B1F90A10E3
:10139000028042808480C18010BD00220280428091
:1013A0008280C28070470177704780ED080A7047DD
:1013B00080F82410704780F825107047012070478E
:1013C000983070478C307047843070477047704752
:1013D00070470000034B902283F85A2383F8582368
:1013E000704700BF00E100E0094A0A49D3680A4893
:1013F000C3F30A03013B9BB20B801169C1F30A01DD
:10140000013901801364536B43F001035363704748
:1014100000680140DE140020DC140020014BD3F8EA
:10142000AC00704700680140024B0122C3F8AC10C9
:101430005A6270470068014010B52C2104461EF026
:101440001AF8204610BD10B5BC2104461EF013F852
:10145000204610BD70B5044607F03FFB23689D6E23
:101460000BF000FE01462046A8472368054AD3F842
:101470008C502046AC460023BDE87040A2F51631E2
:10148000604700BF00B004D007F00EBB07F018BBE8
:1014900007F0D4BA07F043BC90F8252012B10368D6
:1014A0005B691847704790F825201AB190F82420FE
:1014B00002B1186070470000034B4FF080629A60E1
:1014C0004FF080729A60704700E100E0084B4FF0E7
:1014D0008062C3F88820BFF34F8FBFF36F8F4FF048
:1014E0008072C3F88820BFF34F8FBFF36F8F7047B0
:1014F00000E100E070B50023124E8380124B0360C0
:10150000336893F8582005460AB1D86C00B998683A
:101510000368DB6A98473368B0FA80F4D86C6409D2
:1015200030B10368DB6A9847002808BF44F0010423
:101530002CB9064B064A07482C211EF0D9FE284636
:1015400070BD00BFFC270120FC2002089D18020886
:10155000FB1802083419020870B5254E3568BFF330
:101560005B8F15F0010540D130461DF086FF002845
:101570003BD0204C204B256104F13400C4E90035F8
:10158000C4E90255E584A562A5850DF0B8FA04F119
:10159000580009F039FE194BA3652046184B40F856
:1015A000843BFFF7A7FF174BC4F884302433C4F8FB
:1015B0008C304FF4C803C4E928350023C4F8AC309C
:1015C000C4F8B030C4F8B430C4F8B8300E480F4B8B
:1015D000C4F89050C4F89C50C4F8A850C4F898308F
:1015E0001EF0A4FE30461DF054FF024870BD00BF3F
:1015F000E0140020E4140020B42502081C21020895
:101600009421020868250208D11300084825020821
:1016100038B5184C23685BB3174B184A1B6C1188FC
:101620008B4216D1164B198803F03CFA236893F8C5
:101630006A200025013283F86A2083F87C50FFF786
:10164000BBFA206807F0D4FF2846BDE83840FFF712
:10165000FBB803F027FA2468236820461B6A9847E2
:10166000012384F87C300020BDE83840FFF716B92C
:1016700038BD00BFFC27012000680140DE140020B7
:10168000DC14002007B5064BADF806001B680548C2
:1016900001220DF1060103F0B5FF03B05DF804FB74
:1016A0000C0000207416002008B5642004F084FEAD
:1016B000FBE7000030B595B0102200210AA81FF00A
:1016C0001EF81422002103A81FF019F800241E4B55
:1016D00001941A6C42F080521A641B6C03F0805320
:1016E0000193019B194B02941A6842F440421A601C
:1016F0001B6803F4404302930122029B4FF48033A2
:10170000CDE9082302254FF480030821CDE90E53CB
:101710004FF4B473CDE9101308A804231393129562
:1017200003F018FA03F0DCF90F23CDE903354FF489
:10173000A0504FF48053CDE90603052103A805947A
:1017400003F0E4FB15B030BD0038024000700040EB
:101750002DE980489DB00024C94DDFF85CA3DFF877
:101760005CB301F055FEFFF7A5FF142200210FA87E
:101770001EF0C5FF02942B6BC24843F010032B638D
:101780002B6B03F010030293029B03942B6B43F02B
:1017900020032B632B6B03F020030393039B049420
:1017A0002B6B43F080032B632B6B03F080030493BC
:1017B000049B05942B6B43F004032B632B6B03F00A
:1017C00004030593059B06942B6B43F001032B63E5
:1017D0002B6B03F001030693069B07942B6B43F0DE
:1017E00002032B632B6B03F002030793079B089400
:1017F0002B6B43F040032B632B6B03F040030893E8
:10180000089B09942B6B43F008032B632B6B03F0AD
:101810000803224609933C21099B02F03BFB9A48AE
:101820000122022102F036FB22469748042102F0F1
:1018300031FB224695484FF4405102F02BFB012624
:101840003C23CDE90F368F48119403230FA90227BB
:10185000129302F035FA8C480FA9CDE90F76CDE945
:10186000114402F02DFA042387480FA9CDE90F3661
:10187000CDE9114702F024FA4FF4405383480FA9F1
:10188000CDE90F36CDE9114702F01AFA01942B6B1E
:1018900043F480032B632B6B7D4D03F480032246BE
:1018A000052101933820019B01F06EFF382001F0E3
:1018B0009DFF7848784B036001F0A6FF774B2C62C0
:1018C000C5E900A328464FF48043C5E90434C5E9BF
:1018D0000244C5E9064402F0EBFC1021284602F060
:1018E0002FFF214628466E4D02F049FF4FF48273C8
:1018F000C5E900B34FF400721823C5E90623284652
:101900000A23C5E90244C5E90444C5E90844AC62B8
:10191000EB6203F01BFE8F23224639465A488DF8AE
:101920002C308DF83C4002F0B5FA32464FF47A7311
:101930000BA9284603F066FE4FF47A7332460FA9CE
:10194000284604F00BF8324639464F48554D02F010
:10195000A1FA9DF83C30D32B04BF534B1E70534B60
:1019600001261027C5E9003640230024C5E9047389
:101970004FF4C073C5E906344FF40063C5E9083479
:101980004FF400534FF002084FF0040AAB624FF0DF
:10199000030B07230FA92846CDE90F83CDE911A337
:1019A0004FF00809C5E9024ACDE913B8CDF85480D3
:1019B00003F0B0FC4FF6FF720BA92846CDE90C9658
:1019C0000A940B960E9403F0C5FC304601F04CFDD2
:1019D0004FF6FF720BA92846CDE90B89CDE90D64BE
:1019E00003F0B8FC4FF6FF720BA92846CDE90BB9FE
:1019F000CDE90DA403F0AEFC4FF40C730A930A9BDF
:101A00000E934FF6FF720BA92846CDE90BA90D9650
:101A100003F0A0FC40F26A51284603F0B9FC3422DE
:101A200021460FA81EF06BFE214D224B2C61C5E90B
:101A300000340923C5E905361D23C5E9073B40F2FB
:101A40000D1240F24313C5E9092340F2171140F289
:101A500047132846C5E90B13C5E90244AC8685F84F
:101A6000364002F027FFFF21F022CDE914144FF495
:101A7000806005214FF4A073CDE9160120E000BF7E
:101A8000003802400010024000080240000C0240F2
:101A9000741700200818002000300240A0860100C2
:101AA00074160020B0150020A4150020400100A0ED
:101AB000CC16002000680140005C0040005001404E
:101AC000CDE910240FA9CDE9184228462246CDE9D8
:101AD0001238694D1A930F94ADF86C408DF86E4032
:101AE00002F0B3FF654B2B601B68DFF8D09198477D
:101AF0002B68634DDB689847624B2846C5E9003484
:101B0000C5E90284C5E90A48C5E90C4401F0DEFFD5
:101B10003146284602F090F83A4621460FA85A4D21
:101B20000D94CDE90B441EF0EAFD584BAC604FF428
:101B300080384FF0805CC5E9003828464FF0C0631C
:101B4000C5E90A3C2C612C7685F82040EC60EE61FA
:101B500085F830406E6101F09BFC4FF0060E4FF4AB
:101B600000430BA92846CDE90BE30D9401F0D2FD0B
:101B70000E230FA92846CDE90F36454D119401F0EB
:101B80002DFD3A4621460FA81EF0B9FD414BAC6031
:101B90002846C5E900382C612C7685F82040EC6099
:101BA000EE6185F830406E6101F072FC0F230FA9E1
:101BB0002846CDE90F36384D119401F00FFD3A4615
:101BC00021460FA81EF09BFD4FF0804842F2CF0344
:101BD000C5E9008328464FF0FF33C5E90334AC6004
:101BE000AC61CDE90B4404F087F84FF480530FA9A2
:101BF00028460F9304F0B6F80BA920232846274D5A
:101C0000CDE90B3404F048F94FF4E133C5E9009312
:101C100028460C23C5E90534C5E902442C61EC6172
:101C200004F038FAFEF744FDFEF741FD04F054FBE2
:101C30001B4A1C48214604F07BFB1B4B1B4A1860C7
:101C400021461B4804F074FB1A4B186004F056FB45
:101C5000194B0FAC03F1100618685968224603C2ED
:101C60000833B3421446F7D14FF0FF330F220FA9C8
:101C7000284604F03EFAEBE7A015002014000020EF
:101C8000C817002000B00240B81800200020014012
:101C900070180020002101402C160020E4150020BF
:101CA000FC210208A9160008AC150020D821020862
:101CB000BF060008A815002096190208004400403D
:101CC000704770477FB5094B8DF817201B6802934A
:101CD0000DF117020123009201930A4601460448C0
:101CE00002F08EFB07B05DF804FB00BF100000207F
:101CF000741700207FB500238DF81730084B1B6840
:101D000002930A4601230DF1170100910193014648
:101D1000044802F005FC9DF8170007B05DF804FBCD
:101D200010000020741700201FB5084C2468009292
:101D3000CDE901340A4601230146054802F0F0FBD3
:101D4000003818BF012004B010BD00BF10000020F3
:101D50007417002001F088BB10B5064C0022204605
:101D6000042102F097F820460122BDE8104004212A
:101D700002F090B80008024038B50B4D044601222D
:101D80000A484FF4005102F085F800220421284649
:101D900002F080F82046FFF775FC28460122BDE8D6
:101DA0003840042102F076B800080240000C0240DE
:101DB00038B50B4D044600220A484FF4005102F09A
:101DC00069F800220421284602F064F82046FFF753
:101DD00059FC28460122BDE83840042102F05AB8D7
:101DE00000080240000C0240F7B5144E144F05469F
:101DF0000C4630460022042102F04CF800224FF439
:101E00000051384602F046F82846FFF73BFC0D4BE0
:101E10000D481B68224601A903F0A0FD38460122A7
:101E20004FF40051019C02F035F8304601220421A4
:101E300002F030F8204603B0F0BD00BF00080240B9
:101E4000000C02400C0000207416002001F00CBBB6
:101E50000268034B9A4201D101F0F4BA704700BF07
:101E6000001000407047000082B00E4B002200922C
:101E7000596C41F480415964596C01F480410091DE
:101E800000990192196C41F0805119641B6C03F0A8
:101E900080530193019B0F216FF0010002B001F00C
:101EA00073BC00BF0038024070B514228AB00646E9
:101EB00000210DEB02001EF022FC3368304A9342F1
:101EC0003BD1304B3048314C002501955A6C42F4DF
:101ED00080725A645A6C02F480720192019A0295DF
:101EE0001A6B42F004021A631B6B03F004030293A3
:101EF000029B10210323CDE9051305A901F0E0FEA3
:101F0000234B4FF48060C4E900354FF48053C4E99B
:101F100004034FF4804C4FF480732046C4E902550B
:101F2000C4E906C3C4E9085501F094FC08B1FFF701
:101F300099FFB463A6630AB070BD164A9342FAD102
:101F4000104B1148002103915A6C42F400725A64FC
:101F50005A6C02F400720392039A04911A6B42F0D5
:101F600004021A631B6B03F004030493049B2022F6
:101F7000032305A9CDE9052301F0A2FEDBE700BF9D
:101F800000200140003802400008024010180020E4
:101F900010640240002101400268094B9A4282B05D
:101FA0000BD100230193074B1A6B42F480521A6342
:101FB0001B6B03F480530193019B02B0704700BF79
:101FC000003002400038024007B50F4B02689A42C9
:101FD00016D10022A3F5F0430192196B41F40001E0
:101FE00019631B6B03F40003019305215A20019B25
:101FF00001F0CAFB5A2003B05DF804EB01F0F6BB18
:1020000003B05DF804FB00BF00B002402DE9F043CF
:10201000044689B01422002103A81EF070FB226838
:10202000244B9A4243D1244C244800250095236B2D
:1020300043F004032363236B03F004030093009B2A
:102040000195236B43F001032363236B03F001032A
:102050000193019B4FF012094FF400734FF00108F8
:102060000327042603A9CDE90339CDE9058707969F
:1020700001F026FE4FF480731148079603A9CDE9BD
:102080000339CDE9058701F01BFE0295236C43F46B
:1020900000032364236C03F400030293029B236A6E
:1020A00043F400032362236A23F40003236209B08C
:1020B000BDE8F083005C00400038024000080240A8
:1020C00000000240F0B599B004461422002107A890
:1020D0001EF015FB30220DEB020000211EF00FFB5D
:1020E00022685E4B9A4240F0B78008230C93C023CD
:1020F0001093042312930CA84FF40033159302F0AD
:10210000DDFF08B1FFF7AEFE554B564800240094A2
:102110005A6C42F080625A645A6C02F080620092FB
:10212000009A01941A6B42F020021A631A6B02F0B3
:1021300020020192019A02941A6B42F001021A6382
:102140001A6B02F001020292029A03941A6B42F097
:1021500002021A631A6B02F002020392039A0494B9
:102160001A6B42F040021A631A6B02F040020492AA
:10217000049A05941A6B42F004021A631A6B02F077
:1021800004020592059A06941A6B42F008021A633B
:102190001B6B03F00803069302250E26069B0B9685
:1021A0004FF4806307A9CDE90735CDE9094501F072
:1021B00087FD41F658032C480B9607A9CDE9073552
:1021C0000927CDE9094501F07BFD032327480B973B
:1021D00007A9CDE90735CDE9094501F071FD4FF4B7
:1021E000706322480B9607A9CDE90735CDE909456B
:1021F00001F066FD4FF40C631D480B9607A9CDE96D
:102200000735CDE9094501F05BFDC02319480B9660
:1022100007A9CDE90735CDE9094501F051FD0823AE
:1022200015480B9607A9CDE90735CDE9094501F019
:1022300047FD4FF4A0530E480B9707A9CDE907358A
:10224000CDE9094501F03CFD58202246052101F069
:102250009BFA582001F0CAFA19B0F0BD006801409D
:102260000038024000140240000002400004024016
:102270000018024000080240000C024010B504465D
:1022800088B01422002103A81EF039FA2268144BEA
:102290009A4223D103F56843002101915A6C1148F9
:1022A00042F480125A645A6C02F480120192019A2C
:1022B00002911A6B42F020021A631B6B03F0200399
:1022C0000293029B4FF4607202230321CDE90323A2
:1022D0000523CDE9061303A901F0F2FC08B010BDF7
:1022E00000500140001402400368B3F1804F82B0F7
:1022F0000BD100230193064B1A6C42F001021A64C1
:102300001B6C03F001030193019B02B0704700BFF7
:1023100000380240F0B5044689B01422002103A819
:102320001EF0EDF922681E4B9A4236D103F5FA33BE
:10233000002400941A6C1B4842F400321A641A6C90
:1023400002F400320092009A01941A6B42F00102EA
:102350001A631A6B02F001020192019A02941A6B3D
:1023600042F008021A631B6B03F008030293029BFE
:10237000022704230326072503A9CDE90337CDE966
:10238000066501F09DFC40230748079503A9CDE9A8
:102390000337CDE9054601F093FC09B0F0BD00BF5D
:1023A0000044004000000240000C02402DE9F041D2
:1023B00086B0002303932B4B1C68002C4FD14FF0A9
:1023C0000108C3F80080284B00949A6B274842EA22
:1023D00008029A639B6B03EA080300930227032613
:1023E0000C25009B01A94FF63F03CDE90137CDE94C
:1023F000046501F065FC1E48059501A9CDE901873A
:10240000CDE9034601F05CFC48F233131948059509
:1024100001A9CDE90137CDE9034601F051FC4FF6A2
:1024200083731548059501A9CDE90137CDE9034628
:1024300001F046FC4CF203731048059501A9CDE963
:102440000137CDE9034601F03BFC60230C480595BC
:1024500001A9CDE90137CDE9034601F031FC06B011
:10246000BDE8F0810019002000380240001402404D
:10247000000802400018024000100240000C024018
:102480000004024070B588B000230293204B1A6C00
:1024900042F010021A641B6C03F01003029305460D
:1024A00001A903A8029B02F0EBFD069B4BBB02F0C7
:1024B000C7FD184E184B336040F2E733F360174BFB
:1024C000B0FBF3F3013B7360304600233361B3602C
:1024D000B36103F011FC044680B9304603F0E2FA20
:1024E000044658B9362001F081F90F2D0DD8224647
:1024F0002946362001F048F9094B1D60204608B0F6
:1025000070BD02F09DFD4000D3E70124F6E700BF57
:1025100000380240041900200010004040420F0023
:102520007C0000207047FEE7FEE7FEE7FEE770470D
:10253000014803F0F5BA00BF04190020014801F07A
:1025400007BA00BF10180020014802F021BA00BFEE
:10255000CC160020014801F0E5BA00BFC8170020E2
:102560000120704708B51EF0CBF9162303604FF029
:10257000FF3008BD08B51EF0C3F916230360FEE75F
:1025800070B50D4614460E46731B9C4201DC204676
:1025900070BDAFF3008006F8010BF5E770B50D468E
:1025A00014460E46731B9C4201DC204670BD16F893
:1025B000010BAFF30080F5E74FF0FF3070474FF4A9
:1025C00000534B6000207047012070470020704787
:1025D0000A4A116808B5034609B90949116010682B
:1025E000694603448B4206D91EF08AF90C23036026
:1025F0004FF0FF3008BD1360FCE700BF4C1900200E
:1026000040350120704710B5042104461CF033FF0B
:10261000204610BD012908B506D0022908D059B9B5
:1026200000F0D2FB006808BD00F0CEFB4068FAE77E
:1026300000F0CAFB8068F6E70020F4E70048704726
:10264000342202080120704713B5002451B10368F9
:1026500001948DF8034001AA9C680DF10303A04783
:1026600002B010BD0846FBE7C0897047008A70477A
:10267000C088704780887047807A00F07F0070477C
:10268000807AC00970470020704700009FED010A62
:10269000704700BF000000007047704700F5987356
:1026A0000868496803C370477047704741607047C6
:1026B00070477047064BC0F84C310023C0F85031CA
:1026C00000F5A273C0F84801C0F84031704700BF60
:1026D00075270008012303727047704710B4C26861
:1026E00041685410034601EB6200D20748BF0A5903
:1026F0009B685DF8044B48BFD358184703464068B1
:1027000030B19A681AB9D86800F00100704701200A
:10271000704710B50C2104461CF0ADFE204610BDDC
:1027200010B5102104461CF0A6FE204610BD10B5C1
:102730004FF4AE7104461CF09EFE204610BD10B54D
:102740000AF090FC0368BDE81040DB6B184710B539
:102750000446D0F8400158B10368DB68984738B1A7
:10276000D4F8400103689B6898470023C4F84031BF
:1027700010BD00002DE9F14FD0E9556A0746B06859
:1027800003681B6A9847972805D8444B444AA321FD
:1027900044481DF0ADFD706803681B6A98470F2818
:1027A00003D8414B3E4AA421F2E7F06803681B6A54
:1027B00098470B2803D83D4B394AA521E8E70AF092
:1027C00051FCDFF8F09004300AF071FCD9F80000F9
:1027D00010B10368DB689847D9F8000010B10368AE
:1027E0001B689847DFF8D080D8F8000010B1036864
:1027F0005B699847D7F83C0110B103685B6898475C
:10280000D8F8000010B103681B689847D7F83C015E
:1028100010B103689B689847F068036800215B6A01
:1028200098474FF0000B224BC0F804B0044680F8E4
:1028300008B00360B068036859465B6A984705466C
:1028400000F02CFB7068036859465B6A984729467C
:10285000064600F003FB331DC7F83C61C9F8004091
:10286000C8F80050CAF800302B68C6F808A02846FF
:10287000DB68EE639847336830461B68984721460B
:1028800028460CF09FFD236820461B699847236863
:102890005B69204601B0BDE8F04F1847BB1902083C
:1028A000491A02081B1B0208621B0208051C0208C9
:1028B000BC2202084428012040280120044B1B6848
:1028C00093F858200AB1D86C00B99868704700BFD7
:1028D000FC27012070B504460D4616460AF084FC1C
:1028E000104A1460104A2260104A0023C4E95123A0
:1028F000C4E95333C4E94F330D4B18680368012111
:102900009B68C4E955659847FFF7D8FF14F0CFFCE2
:10291000FFF7D4FF14F046FDFFF7D0FF14F04EFD93
:10292000204670BD5028012068220208502202086B
:10293000FC270120064BC0F84C310023C0F8503171
:1029400000F5A273C0F84801C0F84031704700BFDD
:1029500075270008406A7047806A704770478A8808
:102960000B8810B5D20A4C88C1699BB251F822007D
:1029700043EA0443184410BD10B50446BAB1107BB5
:1029800068B1537BD27A1B0203F4E0631A43236AD3
:1029900003EB82031A888A4202D193F9020010BD28
:1029A00005D8013880B204330028F3D1F7E70020BE
:1029B000F5E710B52C2104461CF05DFD204610BD46
:1029C00030B58BB00446BDF860500895BDF85C503A
:1029D00007959DF8505006959DF84C5005959DF82B
:1029E000485004959DF8445003959DF84050029539
:1029F0009DF83C500195BDF8385000950CF03CF91D
:102A0000064B2360159BE361169B2362199B63624F
:102A10001A9BA36220460BB030BD00BFE022020823
:102A2000704770477047704770477047704710B5E0
:102A3000982104461CF01FFD204610BD2DE9F041F1
:102A40001D460368BDF918701B6B0446164698476F
:102A50002368314620465B6B984723682946204609
:102A60009B6B9847236839462046DB6BBDE8F041F5
:102A700018470000094A02604FF4807100228184E7
:102A8000FF21C0E90122C0E90322C0E90522C0E913
:102A9000072280F826108262704700BF782602085D
:102AA0002DE9F743044625460CF0E0FA0026194BC1
:102AB000E66345F8403B04F16C072846FFF7DAFF70
:102AC0004FF4A0793846FFF7D5FF32463146284605
:102AD000CDF80090F023FFF7B1FF04F104084FF0A8
:102AE0007F43A3662946404605F00CFD3246314639
:102AF0003846CDF80090F023FFF7A0FF064BC4F84E
:102B000094304046394605F0FDFC204603B0BDE850
:102B1000F08300BF482302080000FFFF7047000059
:102B200030B5164D2C6814F001048FB0BFF35B8FE5
:102B300020D128461CF0A1FCE0B13F230993104BA3
:102B40000893104B104911480A940122CDE906431D
:102B50000423CDE903320A230093CDE90B44CDE9E8
:102B600001440594FFF72CFF09481DF0DFFB2846C0
:102B70001CF08FFC05480FB030BD00BF501900207D
:102B8000E4300208F0300208B43002085419002082
:102B90001D2B00087047000030B5164D2C6814F04E
:102BA00001048FB0BFF35B8F20D128461CF065FC79
:102BB000E0B13F230993104B0893104B1049114883
:102BC0000A940122CDE906430423CDE903321423FC
:102BD0000093CDE90B44CDE901440594FFF7F0FEE5
:102BE00009481DF0A3FB28461CF053FC05480FB014
:102BF00030BD00BF80190020E8300208F430020820
:102C0000C430020884190020952B0008704700008A
:102C100030B5164D2C6814F001048FB0BFF35B8FF4
:102C200020D128461CF029FCE0B13F230993104B2A
:102C30000893104B104911480A940122CDE906432C
:102C40000423CDE9033228230093CDE90B44CDE9D9
:102C500001440594FFF7B4FE09481DF067FB2846C0
:102C60001CF017FC05480FB030BD00BFB0190020A4
:102C7000EC300208F8300208D4300208B419002001
:102C80000D2C000800207047002070470EB403B5DB
:102C900003AB002153F8042B01930BF06BFA02B045
:102CA0005DF804EB03B070470CB407B504AB53F800
:102CB000042B01930BF05EFA03B05DF804EB02B055
:102CC00070470000436C10B5044673B3038F2BB9F3
:102CD000184B194AC52119481DF00AFBC38E00EB99
:102CE00043035B8C0BB30DF060F8238F012B03D8EB
:102CF000134B144ACB21EEE7E28E531C9BB2092BF7
:102D0000194688BFA3F10A0104EB410140F63F10C8
:102D1000498C814209D10A2B04EB420228BF0023CF
:102D200004EB4303508C588451842046BDE8104086
:102D30000CF03EBFA81C0208B11C02085C1D020872
:102D4000A61D0208B41D02080CF0F9BE38B518BB68
:102D5000124B13481C681349B4B122682244026024
:102D6000626822440A60A26814440F4B00221A8051
:102D700000F02AF8054600F025F80C4B1C600C4BBF
:102D80001D600C4B188007E00B4B03600B4B0B6076
:102D90000B4B1C68002CE8D138BD00BFEC1900209B
:102DA000E4190020E0190020E8190020542801202F
:102DB0005C2801205828012000310208FC3002085C
:102DC000043102080020704700487047F0190020C5
:102DD00010B5FFF7E1FE044C2060FFF719FF6060BB
:102DE000FFF79EFEA06010BDF019002010B5002472
:102DF00004600C6014601C6010BD704710B54FF487
:102E0000AE7104461CF037FB204610BD10B50446D9
:102E1000D0F8580100F013F82046BDE810400AF041
:102E2000A3B9000010B50446FFF754FD014B236021
:102E3000204610BD7C2302080022026070477047C4
:102E4000704704387047704710B5102104461CF0D5
:102E500012FB204610BDA0F10400F5E700228260BD
:102E6000024A026018324260C1607047D0230208F3
:102E70007047000010B5034B03600446FFF7D5FD13
:102E8000204610BDF823020810B50446FFF7F2FFF4
:102E9000204698211CF0EFFA204610BD10B50446DC
:102EA000FFF7FEFD014B2360204610BDF82302080A
:102EB000FFF7BCBDF02070474FF4A0707047292089
:102EC000FEF776BF2820FEF773BF08B5FEF744FF74
:102ED000CA20FEF76DFFC320FEF74EFF0820FEF765
:102EE0004BFF5020FEF748FFCF20FEF761FF002088
:102EF000FEF742FFC120FEF73FFF3020FEF73CFF08
:102F0000ED20FEF755FF6420FEF736FF0320FEF7A5
:102F100033FF1220FEF730FF8120FEF72DFFE8205F
:102F2000FEF746FF8520FEF727FF0020FEF724FF6F
:102F30007820FEF721FFCB20FEF73AFF3920FEF77D
:102F40001BFF2C20FEF718FF0020FEF715FF342092
:102F5000FEF712FF0220FEF70FFFF720FEF728FF13
:102F60002020FEF709FFEA20FEF722FF0020FEF7EF
:102F700003FF0020FEF700FFB120FEF719FF00203D
:102F8000FEF7FAFE1B20FEF7F7FEB620FEF710FF55
:102F90000A20FEF7F1FEA220FEF7EEFEC020FEF7AB
:102FA00007FF1020FEF7E8FEC120FEF701FF10200A
:102FB000FEF7E2FEC520FEF7FBFE4520FEF7DCFE35
:102FC0001520FEF7D9FEC720FEF7F2FE9020FEF78F
:102FD000D3FE3620FEF7ECFEC820FEF7CDFEF22031
:102FE000FEF7E6FE0020FEF7C7FEB020FEF7E0FE8B
:102FF000C220FEF7C1FEB620FEF7DAFE0A20FEF779
:10300000BBFEA720FEF7B8FE2720FEF7B5FE042082
:10301000FEF7B2FE2A20FEF7CBFE0020FEF7ACFE44
:103020000020FEF7A9FE0020FEF7A6FEEF20FEF727
:10303000A3FE2B20FEF7BCFE0020FEF79DFE002025
:10304000FEF79AFE0120FEF797FE3F20FEF794FE62
:10305000F620FEF7ADFE0120FEF78EFE0020FEF703
:103060008BFE0620FEF788FE2C20FEF7A1FEC8206E
:10307000FEF7ECFE2620FEF79BFE0120FEF77CFE0D
:10308000E020FEF795FE0F20FEF776FE2920FEF7E2
:1030900073FE2420FEF770FE0C20FEF76DFE0E205E
:1030A000FEF76AFE0920FEF767FE4E20FEF764FE7B
:1030B0007820FEF761FE3C20FEF75EFE0920FEF759
:1030C0005BFE1320FEF758FE0520FEF755FE172085
:1030D000FEF752FE1120FEF74FFE0020FEF74CFED9
:1030E000E120FEF765FE0020FEF746FE1620FEF703
:1030F00043FE1B20FEF740FE0420FEF73DFE11209C
:10310000FEF73AFE0720FEF737FE3120FEF734FEC9
:103110003320FEF731FE4220FEF72EFE0520FEF79B
:103120002BFE0C20FEF728FE0A20FEF725FE2820A5
:10313000FEF722FE2F20FEF71FFE0F20FEF71CFEDB
:103140001120FEF735FEC820FEF780FE2920FEF78D
:103150002FFEBDE808402C20FEF72ABE08B5FEF77A
:10316000FBFD0321D320FEF73FFE80B208BD10B562
:10317000C4B2022203212046FEF7A4FD0A20FEF776
:10318000E9FD204600220321FEF79CFDBDE810402A
:103190000220FEF7DFBD38B50446E4B2FEF790FD2D
:1031A00000212046FEF7A6FD012105462046FEF738
:1031B000A1FD40EA052080B238BD10B5C4B240215F
:1031C0002046FEF797FD030607D54C212046FEF763
:1031D00091FD003818BF012010BD01224B2120466F
:1031E000FEF770FD204600224B21FEF76BFD00200C
:1031F000F2E773B50423C4B20E461546D7210DEB92
:1032000003022046FEF790FD019B1BBA1A0DC3F383
:103210000B23328020462B8001224B21FEF752FDEA
:1032200000224B212046FEF74DFD02B070BD00008C
:1032300010B50A4A1378984204460DD05178884256
:103240000AD00BB141B90123D454FEF739FD204611
:10325000BDE81040FFF78BBF10BD00BFFC19002078
:1032600010B5C4B209212046FEF744FD40F001022A
:10327000D2B220460921BDE81040FEF723BD10B5AB
:10328000C4B209212046FEF735FD092100F0FE02F7
:103290002046BDE81040FEF715BD38B5C4B20D4656
:1032A00020460A21FEF726FD40EA0502D2B220465A
:1032B0000A21BDE83840FEF705BD10B50446FEF70B
:1032C00000FD20461F21FFF7E8FF2046BDE8104023
:1032D000FFF7C6BF38B5C4B20D4620460A21FEF737
:1032E00009FD20EA0502D2B220460A21BDE8384095
:1032F000FEF7E8BC10B50446FFF7C1FF20461F21CA
:10330000BDE81040FFF7E6BF10B5C0B20C460B2178
:10331000FEF7F0FC204010BD1F21FFF7F5BF0A4665
:10332000C0B20B21FEF7CEBC1F21FFF7F8BF38B5A6
:10333000C4B20D4620461721FEF7DCFC20EA050248
:10334000D2B220461721BDE83840FEF7BBBC70B5AD
:10335000C4B2064604212046FEF7CCFC042100F04E
:10336000FB0205462046FEF7ADFC3046F021FFF794
:10337000DEFF05F0F80220460421FEF7A3FC4922F7
:1033800020212046FEF79EFC0220FEF7E3FC2046AB
:1033900001222121FEF796FC20469A224121FEF7C8
:1033A00091FC204601224A21FEF78CFC2046012296
:1033B0004B21FEF787FC204600224B21FEF782FCC2
:1033C000204601225621FEF77DFC2046012258218D
:1033D000FEF778FC204601224021FEF773FC2046D0
:1033E000FF220B21FEF76EFCBDE870400220FEF7C5
:1033F000B1BC0000054BD3F8882042F47002C3F83A
:1034000088204FF000629A60704700BF00ED00E036
:1034100008B50B4B1A6842F400721A601A6842F43D
:1034200080621A601A6842F480721A60032000F009
:1034300099F90020FFF726F8FEF716FD002008BDD9
:10344000003C0240034A044B11681B780B44136094
:10345000704700BF001A002078000020014B186858
:10346000704700BF001A002038B50446FFF7F6FF8A
:10347000631C1CBF054B1B78054618BFE418FFF7FB
:10348000EDFF431BA342FAD338BD00BF78000020F4
:1034900038B50446002800F09B80056C25B9FEF77E
:1034A00003FD656484F83C50236CDB0600F18E80DC
:1034B000236C23F4885323F0020343F002032364B4
:1034C000444B5A6822F440325A605A6861680A4391
:1034D0005A60236821695A6822F480725A605A68D7
:1034E00042EA01225A605A68A16822F040725A608A
:1034F0005A680A435A609A68E16822F400629A6046
:103500009A680A439A603449A26A8A4252D09968FA
:1035100021F07061996099680A439A609A68E16A3B
:1035200022F040529A609A680A439A609A6822F0A0
:1035300002029A609A68217E42EA41029A6094F8F7
:103540002020002A3ED05A68616A42F400625A6024
:103550005A6822F460425A605A68013942EA41329C
:103560005A60DA6AE16922F47002DA62DA6A0139D1
:1035700042EA0152DA629A6822F400729A609A680A
:1035800094F8301042EA41229A609A68616922F404
:1035900080629A609A68002042EA81229A606064A0
:1035A000236C23F0030343F001032364002384F816
:1035B0003C3038BD9A6822F070629A609A6822F0B6
:1035C0004052B2E75A6822F40062C9E70120EDE7F1
:1035D0000120EEE7002301400100000FF7B50023B2
:1035E000019390F83C30012B054600F086800123C2
:1035F00080F83C3008682B688E68092884B233D97B
:1036000004EB4402DF681E3A4FF0070C0CFA02FC90
:1036100027EA0C07DF60DF6806FA02F23A43DA6055
:103620004968062901EB81022DD8596B053A1F26FE
:10363000964021EA06015963596B04FA02F20A43E3
:103640005A632F4A93420AD1122837D12D4B5A6818
:1036500022F400025A605A6842F480025A60002044
:1036600085F83C0003B0F0BD1A6900EB400C072759
:1036700007FA0CF722EA07021A611A6906FA0CF631
:1036800016431E61CCE70C294FF01F010BD81E6BAF
:10369000233A914026EA01011963196B04FA02F2F8
:1036A0000A431A63CDE7DE6A413A914026EA0101F6
:1036B000D962D96A94400C43DC62C2E7124B98424B
:1036C00001D01128CBD10F4B5A6822F480025A60E6
:1036D0005A6842F400025A600B4B9842BFD10B4B20
:1036E0000B4A1B68B3FBF2F30A2253430193019B7D
:1036F000002BB4D0019B013BF8E70220B2E700BFEA
:10370000002001400023014012000010740000203E
:1037100040420F0010B590F83C30012B02461CD0FF
:103720000F4B586820F01F00586058680C68204301
:103730005860586820F44040586058684C682043EE
:103740005860586820F47060586058688968014370
:103750000020596082F83C0010BD0220FCE700BF49
:10376000002301400749CA6822F4E0620302120400
:1037700003F4E063120C134343F0BF6343F40033DC
:10378000CB60704700ED00E0164B30B5DC68C4F349
:103790000224C4F10703251D042B28BF0423062D92
:1037A0004FF0FF358CBF033C002405FA03F321EAF8
:1037B0000303A54022EA0502A340002843EA0203CE
:1037C000ACBF00F16040084A4FEA0313B8BF00F0F5
:1037D0000F00DBB2AABF00F56140135480F800333C
:1037E00030BD00BF00ED00E014ED00E0002807DB75
:1037F000044A4109012300F01F00834042F82130B0
:10380000704700BF00E100E010B5044650B14379B5
:1038100003F0FF0213B90271FEF7BEFB01236371CF
:10382000002010BD0120FCE7036810B5084C0246DB
:10383000D9B210391820B1FBF0F0205CD06523F428
:103840007F7020F003005F2988BF0430906510BDB1
:103850003C24020870B50446FFF700FE0546002C24
:1038600060D0022384F835302268002384F8343095
:10387000136823F00103136022681368D8072ED45D
:1038800013683248A1691840D4E901352B43E56833
:103890002B4325692B4365692B43E5690B432B4378
:1038A000256A2B430343606A042802BFD4E90B5600
:1038B00035432B4313605369042823F0070343EA7D
:1038C000000335D1A06AE56A03438DB391B901289D
:1038D00020D030F002012BD1E90129D51DE0FFF7FE
:1038E000BDFD401B0528C7D920230320636584F84C
:1038F000350070BDB1F5005F16D1032818D801A1BD
:1039000051F820F01B390008D93800081B3900088D
:1039100015390008B5F1C07F0AD140236365012342
:1039200084F835300120E4E70228F6D90328D3D003
:1039300053612046FFF778FFE26D3F239340836099
:1039400000200123606584F83530D2E73F8010F015
:10395000F7B5002301935C4B856D1F68C36D2E681E
:1039600008229A40324204460CD001680868400799
:1039700008D5086820F004000860AA60626D42F073
:103980000102626501229A40324208D021684969E9
:10399000090641BFAA60626D42F00202626504221C
:1039A0009A40324208D021680968880741BFAA605E
:1039B000626D42F00402626510229A40324210D0D9
:1039C0002368196809070CD5AA601A68500337D50F
:1039D0001B68190301D4236C00E0A36C0BB12046D3
:1039E0009847E16D20228A4032423AD02368186815
:1039F000C60636D5AA6094F83520052A1A6827D15C
:103A000022F016021A605A6922F080025A61226C72
:103A10000AB9A26C1AB11A6822F008021A603F2390
:103A20008B40AB60012384F83530002384F83430B8
:103A3000236D002B45D0204603B0BDE8F040184769
:103A40001A68D2055EBF1A6822F008021A60C2E73F
:103A5000500327D51B68190331D4636C0BB1204682
:103A60009847636D6BB3636DDA0719D522684FF41D
:103A70001653B7FBF3F7052384F83530136823F0AA
:103A800001031360019B0133BB42019302D8136809
:103A9000DB07F7D4012384F83530002384F8343071
:103AA000E36CC6E71A6812F4807208D1196821F035
:103AB00010011960012384F8353084F83420E36B59
:103AC000CCE703B0F0BD00BF7400002010B5044681
:103AD00020B390F8393003F0FF021BB980F838208A
:103AE000FEF772FA022384F83930236861681A6895
:103AF00022F440320A431A605A6BA16822F007028E
:103B00000A435A631A6CE1686FF30D020A431A64A0
:103B100000200123E06384F8393010BD0120FCE768
:103B200070477047036870B55E681D68F207044609
:103B300014D5E90512D51A6822F480721A60C26B96
:103B400042F00102C26301229A60042380F83930F6
:103B5000002380F83830436903B19847B20616D580
:103B6000AB0414D523681A6822F400521A6020228C
:103B70009A60E36B43F00203E363042384F8393073
:103B8000002384F8383063690BB12046984730072A
:103B900016D5290514D523681A6822F400621A6024
:103BA00008229A60E36B43F00403E363042384F880
:103BB0003930002384F8383063690BB120469847C8
:103BC00072070BD56B0509D523681A6822F4806249
:103BD0001A6004229A602046FFF7A2FFB00714D5AE
:103BE000A90512D523681A6822F400721A6002220D
:103BF0009A60E36BE363012384F83930002384F88F
:103C0000383023690BB120469847F20613D5EB04F0
:103C100011D523681A6822F480521A6010229A6023
:103C2000E36BE363012384F83930002384F83830F0
:103C30002046FFF776FF70BDF0B590F83820012AD6
:103C400003464FF002002BD0012283F8382083F87E
:103C5000390003EB0112D2E90740556A174F44EAD5
:103C60000040093C012C9CBF05F07F4210434FEA05
:103C700001161A6888BF40EA056091B9516A394057
:103C800001435162012C9969916103D8596A21F06D
:103C90007F4191620122002083F8392083F83800A7
:103CA000F0BDD16939400143D1619919012C89696D
:103CB00011619CBF25F07F451562EBE7F0FFFC002A
:103CC0002DE9F74FDFF8BC916C4A00230D68012401
:103CD0009C4004EA0506AC4340F0B7804D680327DA
:103CE00005F003044FEA430807FA08FC671E012F9A
:103CF0006FEA0C0C34D8876807EA0C0ECF6807FA15
:103D000008F747EA0E078760476827EA060EC5F3FB
:103D100000179F4047EA0E074760C76807EA0C0E86
:103D20008F6807FA08F747EA0E07022CC76019D117
:103D30004FEAD30A00EB8A0A03F0070BDAF8207087
:103D40004FEA8B0B4FF00F0E0EFA0BFE27EA0E0E0A
:103D50000F6907FA0BF747EA0E07CAF8207001E06F
:103D6000032CDAD1076804FA08F407EA0C073C438D
:103D700015F4403F046068D000240194D9F8444011
:103D800044F48044C9F84440D9F8444023F0030780
:103D900007F1804704F4804407F59C37019403F051
:103DA000030C019CD7F808E04FEA8C0C0F2404FAAE
:103DB0000CF42EEA040E324CA0424DD004F580647F
:103DC000A0424BD004F58064A04249D004F5806441
:103DD000A04247D004F58064A04245D004F5806439
:103DE000A04243D004F58064A04241D004F5806431
:103DF000A0423FD004F58064A0423DD004F5806429
:103E0000A04214BF0A24092404FA0CF444EA0E0464
:103E1000BC609468F74315F4801F0CBF3C403443EA
:103E20009460D46815F4001F0CBF3C403443D46048
:103E3000546815F4003F0CBF3C4034435460146890
:103E4000ED0354BF3C40344314600133102B7FF426
:103E50003DAF03B0BDE8F08F0024D5E70124D3E7E0
:103E60000224D1E70324CFE70424CDE70524CBE7E0
:103E70000624C9E70724C7E70824C5E7003C01403A
:103E800000000240003802400369194214BF0120BB
:103E9000002070470AB1816170470904FBE743695C
:103EA00001EA030221EA030141EA0241816170470C
:103EB00001684B6913F480634FF0000210D06FF477
:103EC00080634B612023026380F83D3080F83E2000
:103ED000036C80F83C2043F0040303640120704726
:103EE000184670472DE9F84606460F4691461D468E
:103EF0004FEA114A3368BAF1010F0CBF5C699C6943
:103F000027EA0404A4B2B4FA84F46409A14501D0F8
:103F1000002025E06A1CEED0FFF7A0FA089BC01A2B
:103F2000A84201D8002DE5D13368BAF1010F0CBFCA
:103F30005B699B6927EA03039BB2B3FA83F35B09CE
:103F40009945D7D100232022336386F83D2086F897
:103F50003E30326C86F83C3042F020023264012060
:103F6000BDE8F8862DE9F04104460F46164698460E
:103F70002568686927EA000080B2C0B16B695A05FC
:103F800017D52B6843F400732B606FF480636B616B
:103F900020220023236384F83D2084F83E30236CE4
:103FA00043F004032364002384F83C300120BDE87F
:103FB000F081731CDDD0FFF751FAA0EB0800B0428E
:103FC00001D8002ED4D123685A6927EA020292B29E
:103FD000002ACDD000232022236384F83D2084F8DA
:103FE0003E30236C1343DDE770B504460D4616469C
:103FF00023685B691B0601D500201EE02046FFF701
:1040000057FFC8B96A1CF3D0FFF728FA801BA842F3
:1040100001D8002DECD123685B6913F08003E7D150
:104020002022236384F83D2084F83E30226C84F8FB
:104030003C3042F020022264012070BD2DE9F043A3
:104040001546026885B0DDE90C789946136843F49B
:10405000807313600E463B46CDF8008000224FF07F
:1040600001110446FFF73EFF236838B11B68DB05EA
:1040700002D54FF400732364032620E006F0FE0609
:104080001E611A4943463A462046FFF76BFFA8B91E
:10409000236803905A6903929B6903934246394609
:1040A0002046039BFFF7A0FF064660B1236C042B5C
:1040B00001BF2268136843F4007313600126304681
:1040C00005B0BDE8F083B9F1010F236802D1EDB26C
:1040D0001D61F4E72A0A1A61394642462046FFF775
:1040E00083FF0028E2D12368F1E700BF020001004E
:1040F0002DE9FF479A46036815461A6842F4806224
:104100001A601A68DDE90C7842F480721A600E4673
:104110003B46CDF8008000224FF001110446FFF726
:10412000E1FE236838B11B68DB0544BF4FF4007320
:104130002364032021E05FFA86F906F0FE061E6183
:104140002B4943463A462046FFF70CFFA0B92368A7
:1041500003905A6903929B6903934246394620466D
:10416000039BFFF741FF58B1236C042B01BF22686A
:10417000136843F400731360012004B0BDE8F087B6
:10418000BAF1010F23681AD1EDB242461D613946DA
:104190002046FFF729FF02460028E5D121680B6879
:1041A00043F480730B602046CDF800803B464FF00F
:1041B0000111FFF797FE226860B11368B4E72A0A7D
:1041C0001A61394642462046FFF70EFF0028CBD140
:1041D0002368D9E749F001031361054943463A468C
:1041E0002046FFF7BFFE003818BF0120C5E700BF1B
:1041F0000200010070B504460D46164623685B694F
:104200005B0701D500201EE02046FFF751FEC8B92C
:104210006A1CF3D0FFF722F9801BA84201D8002DB9
:10422000ECD123685B6913F00403E7D120222363F8
:1042300084F83D2084F83E30226C84F83C3042F013
:1042400020022264012070BD70B504460D4616465A
:1042500021684B6913F0400301D0002011E04A6946
:10426000D2060FD56FF010024A612022236384F832
:104270003D2084F83E30236C2364002384F83C30D6
:10428000012070BDFFF7EAF8801BA84201D8002D7D
:10429000DED123685B6913F04003D9D12022236368
:1042A00084F83D2084F83E30236C1343E4E700009B
:1042B00070B5044608B9012070BD90F83D3003F098
:1042C000FF021BB980F83C20FDF7A0FE242384F8F0
:1042D0003D3023681A6822F001021A601A6842F41D
:1042E00000421A601A6822F400421A6000F0A8FE28
:1042F0003F4B65689D4294BF3E4B3F4B98428CBFFD
:1043000000230123002BD6D12268394E51683B4B44
:10431000B0FBF3F321F03F011943B542516088BF70
:104320004FF49676116A88BF734321F03F0184BF32
:104330004FF47A76B3FBF6F301330B431362D16982
:10434000431E2B4821F44F41854221F0FF0132D812
:104350006D0040F6FC70B3FBF5F30133034242D02D
:10436000C3F30B031943D161D4E907301168034348
:1043700021F0C0010B4313609168D4E9030321F4D9
:104380000341034321F0FF010B439360D4E905305F
:10439000D168034321F0FF010B43D360136843F05E
:1043A0000103136000202023206484F83D30206343
:1043B00084F83E0080E7A06850B905EB4505B3FBE3
:1043C000F5F30133C3F30B037BB143F40043C9E7B7
:1043D00019206843B3FBF0F30133C3F30B0323B19C
:1043E00043F44043BEE70423BCE70123BAE700BF20
:1043F000A08601007F841E00FF083D0040420F00A0
:104400002DE9F743044699460C9E0F469046FFF768
:1044100025F894F83D30202B054603D0022003B048
:10442000BDE8F08300903C49192301222046FFF7A4
:1044300059FD0028F2D194F83C30012BEED02068D1
:10444000012384F83C300368D9075EBF036843F05A
:1044500001030360036823F400630360212384F8ED
:104460003D30402384F83E30002323640A9B63627E
:10447000BDF82C306385638D2385284BE36242466B
:10448000CDE900654B4639462046FFF7D7FD0028A9
:104490002AD00120C3E7FFF7A7FD40B1236C042B0E
:1044A00001BF2268136843F400731360F1E7636A85
:1044B00027681A4612F8011B39616262628D218DEC
:1044C000013A92B262857A69481E80B2520720850D
:1044D0000AD548B15A783A6102336362638D013B71
:1044E00002399BB221856385238D2A4631462046B9
:1044F000002BD0D1FFF77EFE0028CFD122681368B1
:1045000043F400731360202384F83D3084F83C00AA
:1045100084F83E0083E700BF020010000000FFFFA8
:104520002DE9F043044687B09946109F0D4690460A
:10453000FEF794FF94F83D30202B064604D0022568
:10454000284607B0BDE8F08300907A49192301227C
:104550002046FFF7C7FC0028F1D194F83C30012B2E
:10456000EDD02068012384F83C300368DB075EBF90
:10457000036843F001030360036823F400630360EE
:10458000222384F83D30402384F83E300023236406
:104590000E9B6362BDF83C306385638D2385664B5B
:1045A000E3622946CDE900764B4642462046FFF7B6
:1045B0009FFD054608B10125C2E7228D2368B2B9E7
:1045C00002905A6902929A690292029A1A6842F417
:1045D00000721A60DFF86481238D002B2CD1202219
:1045E00084F83D2084F83C3084F83E30A8E7012A66
:1045F0000AD11A6822F480621A6003905A69039201
:104600009A690392039AE1E7022A0ED11A6822F40A
:1046100080621A601A6842F400621A6004905A6953
:1046200004929B690493049BD4E705905A69059210
:104630009B690593059BCDE7032B56D8012B15D11C
:10464000324639462046FFF7FFFD0028B3D12368E4
:104650001A69636A1A70636A01336362238D013BCE
:104660002385638D013B9BB26385B5E7022B0096E2
:104670003B464FF000024146204619D1FFF732FC7D
:10468000002898D123681A6842F400721A601A69E7
:10469000636A1A70626A531C6362238D013B23852F
:1046A000638D013B9BB2638523681B695370D2E71E
:1046B000FFF718FC024600287FF47DAF23681968D5
:1046C00021F4806119601969636A1970636A0133A2
:1046D0006362238D013B2385638D013B9BB2638520
:1046E000414600963B462046C8E7324639462046BA
:1046F000FFF7AAFD00287FF45EAF23681A69636A9A
:104700001A70628D616A013A92B24B1C628522680E
:104710006362238D5069013B9BB2400723857FF57F
:104720005BAF032B02BF136823F48063136013692C
:104730004B7090E7020010000000FFFF0400010032
:1047400010B590F83D30202BDCB216D1242380F830
:104750003D3003681A6822F001021A605A6A22F09A
:1047600010025A625A6A114359621A6842F00102F1
:104770001A6080F83D40002010BD0220FCE730B5F3
:1047800090F83D30202BDCB216D10268242380F84B
:104790003D30136823F001031360556A4FF6F07340
:1047A0002B400B439BB25362136843F00103136029
:1047B00080F83D40002030BD0220FCE70068D1F8C1
:1047C00000C0D201843283182DE9F043C6685D68C9
:1047D0004C68D1F8189005F470455D60C5680CF11F
:1047E0000107C5F30B45C6F30B4626443D4445EA95
:1047F00006455D60C668CD68C6F30A062E449D680E
:1048000005F470459D60C7688D68C7F30A070135D8
:104810003D4445EA06459D601D690E6925F0070582
:104820001D614FF0000E1E6191F832709D6991F884
:104830003180C3F818E091F8305045EA096545EA3F
:10484000082545EA07459D615D6925F0FF055D6125
:104850004D695D61DD6925F4E06525F00705DD61E1
:10486000D1E907573D43DD619D6A4D6AC3F828E0F1
:10487000072E9D629CBF0E4DAE5DDD6A05F0E02502
:10488000DD6288BF01268D6AC96AA4EB0C047443FB
:104890007543033444EA0544DC621C6B6FF30A047D
:1048A0001C631963835843F001038350BDE8F08310
:1048B0004424020838B50446002863D090F8A1309B
:1048C00003F0FF021BB980F8A020FDF7FBFB0223D9
:1048D00084F8A13023689A6922F070429A61D4E981
:1048E00001200243E06899690243206902430A43B8
:1048F0009A619A68244960690A409A609A6842EA13
:104900000042A06902439A60DA68E0690A40DA600E
:10491000DA6842EA0042206A0243DA601A69606A91
:104920000A401A611A6942EA0042A06A02431A6107
:104930005A690A405A615A69E16A42EA0142216BA6
:104940000A435A61DA6A94F8350094F8361002F096
:104950007F42DA62DD6A94F834202A4342EA002278
:1049600042EA0142DA625A6B42F006025A639A69DD
:1049700042F001029A6100200123C4F8A40084F8E7
:10498000A13038BD0120FCE700F800F07047704707
:10499000036870B59E6B5D6B7207044614D569079A
:1049A00012D55A6B22F004025A630422DA63D0F85B
:1049B000A43043F00103C0F8A430002380F8A12004
:1049C00080F8A030FFF7E2FFB20716D5AB0714D589
:1049D00023685A6B22F002025A630222DA63D4F887
:1049E000A4301343C4F8A430042384F8A130002376
:1049F00084F8A0302046FFF7C9FFF00710D5E9077B
:104A00000ED523685A6B22F001025A630122DA6341
:104A1000002384F8A12084F8A0302046FCF7F8FD9C
:104A2000320711D52B070FD523685A6B22F00802E5
:104A30005A630822DA63012384F8A130002384F842
:104A4000A0302046FFF7A3FF70BD2DE9F04190F89C
:104A5000A030012B06460F4694464FF002001FD0AF
:104A60004FF0010886F8A08086F8A10034240D4696
:104A700004FB02640FCD38340FC40FCD0FC40FCD2B
:104A80000FC42B682360304662463946FFF796FE16
:104A900033680020C3F8248086F8A18086F8A0003F
:104AA000BDE8F08190F8A020012A03464FF00200F3
:104AB00012D01A6883F8A100506B20F001005063F7
:104AC00006480164516B41F001015163002001224D
:104AD00083F8A12083F8A000704700BF0068014060
:104AE00037B500230193184B184D1A6C42F08052D1
:104AF0001A641B6C03F080530193019B144B012239
:104B00001A64FEF7ABFC04466B68DA030BD5104B56
:104B10000E4D01225A64FEF7A1FC04466B689B030C
:104B20000AD5002006E0FEF799FC001BB0F57A7F5D
:104B3000EAD9032003B030BDFEF790FC001BB0F5AE
:104B40007A7FEBD9F5E700BF0038024000700040E3
:104B500000000E422DE9F341044640B30368DE072E
:104B600010D423689D075BD42368190700F19D804A
:104B700023685A0700F1BD80A369002B40F024810F
:104B800000202CE08D4B9A6802F00C02042A07D01A
:104B90009A6802F00C02082A0BD15B68590208D50A
:104BA000864B1B689A03DCD56368002BD9D10120A2
:104BB00015E06368814DB3F5803F13D12B6843F452
:104BC00080332B60FEF74AFC7C4E054633689B031E
:104BD000C7D4FEF743FC401B6428F7D9032002B07A
:104BE000BDE8F081B3F5A02F04D12B6843F48023F6
:104BF0002B60E3E72A6822F480322A602A6822F4D4
:104C000080222A60002BDDD1FEF728FC06462B68A7
:104C10009F03A6D5FEF722FC801B6428F7D9DDE7A9
:104C2000664B9A6812F00C0F07D09A6802F00C02DB
:104C3000082A11D15B685D020ED4604A1368990797
:104C400002D5E368012BB2D11368216923F0F80380
:104C500043EAC103136087E7E268594BB2B101220E
:104C60001A60FEF7FBFB554D06462B689B0707D5E0
:104C70002B68226923F0F80343EAC2032B6073E731
:104C8000FEF7ECFB801B0228EFD9A7E71A60FEF7BE
:104C9000E5FB4A4E054633689F077FF565AFFEF793
:104CA000DDFB401B0228F6D998E76269444B82B1CC
:104CB0000122C3F8802EFEF7D1FB404E0546736FEC
:104CC0009B073FF555AFFEF7C9FB401B0228F6D9FD
:104CD00084E7C3F8802EFEF7C1FB384E0546736F9C
:104CE0009F077FF545AFFEF7B9FB401B0228F6D9B9
:104CF00074E7324B1A6C12F0805228D101921A6C70
:104D000042F080521A641B6C03F080530193019BA4
:104D100001272C4D2B68D8051BD5A368274D012BE7
:104D200027D12B6F43F001032B67FEF797FB234E30
:104D3000054641F28838336F9A0739D5002F3FF482
:104D40001BAF1E4A136C23F08053136414E7002733
:104D5000DFE72B6843F480732B60FEF77FFB06468A
:104D60002B68D905D9D4FEF779FB801B0228F7D927
:104D700034E7052B04D12B6F43F004032B67D0E7F6
:104D80002A6F22F001022A672A6F22F004022A67A2
:104D9000002BCAD1FEF762FB41F2883806462B6F22
:104DA0009B07CBD5FEF75AFB801B4045F7D915E78B
:104DB000FEF754FB401B4045BDD90FE700380240C9
:104DC0000000474200700040374DAA6802F00C0214
:104DD000082A3ED0022B354B4FF000021A662BD129
:104DE000FEF73CFB06462B6899011FD4D4E9073235
:104DF0001343626A43EA8213E26A43EA0263A26AE5
:104E00005208013A43EA02436B60284B264D0122C7
:104E10001A66FEF723FB04462B689A013FF5B0AEF5
:104E2000FEF71CFB001B0228F6D9D7E6FEF716FB9F
:104E3000801B0228D7D9D1E6FEF710FB04462B6869
:104E40009B017FF59DAEFEF709FB001B0228F6D9FA
:104E5000C4E6012B3FF4ABAE6B68E26903F480015A
:104E600091427FF4A4AE216A03F03F028A427FF4AC
:104E70009EAE616A47F6C0721A40B2EB811F7FF4A2
:104E800096AEA26A520803F44031013AB1EB024FE8
:104E90007FF48DAEE26A03F07063B3EB026F14BF70
:104EA000012000209BE600BF00380240000047427E
:104EB000134908B58B6803F00C03042B1CD0082B96
:104EC0001CD14A684B68496813F4800314BF0D482D
:104ED0000D48C1F3881118BF002302F03F02A1FB67
:104EE0000001FBF725FA064B5B68C3F3014301336E
:104EF0005B00B0FBF3F008BD0248FCE70248FAE7AC
:104F00000038024000127A000024F4002DE9F0413C
:104F10000D46044610B90120BDE8F081434B1A68E4
:104F200002F00F028A4228D321688F072DD4C807C8
:104F300040D43E4B1A6802F00F02AA4265D822689C
:104F400051076BD4130707D5394A2169936823F4B5
:104F5000604343EAC1039360FFF7AAFF344B354A2D
:104F60009B68C3F30313D35CD840334B1860334BB7
:104F70001868FDF787FA0020CEE7CAB21A701B68DE
:104F800003F00F038B42C6D1CEE7294B11F0040F7B
:104F90001EBF9A6842F4E0529A600E0742BF9A68B8
:104FA00042F460429A609A68A06822F0F0020243DC
:104FB0009A60BCE762681E4B012A1CD11B6813F47F
:104FC000003FA8D01A4EB36823F003031343B36025
:104FD000FEF744FA41F288380746B368626803F086
:104FE0000C03B3EB820FA4D0FEF738FAC01B404588
:104FF000F3D9032090E7911E01291B6802D813F012
:10500000007FDEE713F0020FDBE7EAB21A701B68DD
:1050100003F00F03AB427FF47EAF90E70449E068F2
:105020008B6823F4E05303438B608BE7003C024022
:10503000003802402C240208740000207C0000206C
:10504000044B054A9B68C3F38223D35C034A106870
:10505000D840704700380240242402087400002021
:10506000044B054A9B68C3F34233D35C034A106880
:10507000D840704700380240242402087400002001
:105080000F2303600B4B9A6802F0030242609A6898
:1050900002F0F00282609A6802F4E052C2609B68FB
:1050A000DB0803F4E0530361034B1B6803F00F03B9
:1050B0000B60704700380240003C0240036813F068
:1050C000430FF7B5044640F08880236813F00C0FB7
:1050D00045D08C4B8C4D00221A67FEF7BFF906466F
:1050E0002B68990000F1CB8021684A0715D5D4E9D7
:1050F0000403D5F888201B0602F0E04243EA80133F
:105100001343C5F88830D5F88C30226A23F4F8535D
:10511000013A43EA0223C5F88C300B0714D57A4ACA
:10512000A369D2F8881020691B0701F0706143EA77
:1051300080130B43C2F88830D2F88C30616A23F4B4
:1051400040330B43C2F88C306E4B6F4E01221A670E
:10515000FEF784F9054633689F0040F19780236885
:10516000980634D500230193674B684D1A6C42F0C2
:1051700080521A641B6C03F080530193019B2B68CF
:1051800043F480732B60FEF769F906462B68D80557
:1051900040F183805C4DA26A2B6F13F4407340F0A2
:1051A0008380A36A03F44072B2F5407F564A40F010
:1051B0009E80916823F0704021F4F81120F4407033
:1051C00001439160116FC3F30B030B431367236813
:1051D000DB0600F1908000204FE04A4B4A4E00224F
:1051E0009A66FEF73BF9054633681F013FD42168F4
:1051F000C80741BFD4E901231B0743EA8213C6F85D
:1052000084308A0715D5404AE368D2F8840065687F
:105210001B0600F0E04043EA85130343C2F88430E4
:10522000D2F88C00E36920F01F00013B0343C2F871
:105230008C304B060AD5E36862681B0643EA82138A
:10524000A26843EA0273304AC2F884302D4B2E4ED6
:1052500001229A66FEF702F9054633681F013FF501
:1052600034AFFEF7FBF8401B0228F6D904E0FEF746
:10527000F5F8401B0228B7D9032003B0F0BDFEF7B4
:10528000EDF8801B02287FF62BAFF5E7FEF7E6F876
:10529000401B02287FF65FAFEEE7FEF7DFF8801BCA
:1052A00002287FF673AFE7E702F4407293423FF4BF
:1052B00078AF2B6F134A0121C2F8401E23F44073CC
:1052C0000021C2F8401E2B672B6FD9077FF569AF0D
:1052D000FEF7C4F841F2883706462B6F9A073FF570
:1052E00060AFFEF7BBF8801BB842F6D9C4E79168FF
:1052F00021F4F81165E7064B94F82C20C3F8E0215F
:1053000069E700BF000047420038024000700040DB
:105310000010474238B50D460446C8B190F82C300D
:1053200003F0FF021BB980F82D20FDF73FF80223A0
:1053300084F82C30211D206800F029FF6268206865
:10534000294600F05AFF012384F82C30002038BD94
:105350000120FCE770B590F82C30022B05460E4674
:10536000D8B212D000F0FB04012C0FD1022385F833
:105370002C30286800F077FF3368022B06BF052326
:1053800085F82C3085F82C40002070BD0120FCE70A
:1053900038B590F82C30022B0446D8B20DD094F8D2
:1053A0002C30012BDDB209D10223206884F82C3087
:1053B00000F07DFF84F82C50002038BD0120FCE770
:1053C0002DE9F3471F46894690460446FEF746F806
:1053D0000A9D3D442D1AFEF741F8264B1E68C6F380
:1053E000CB366E43824601962268936839EA0303FE
:1053F0000CBF01230023434501D100202EE07B1C7C
:10540000F3D0FEF72BF8A0EB0A00A84229D32368BB
:105410005A6822F0E0025A606268B2F5827F0AD1CF
:10542000A268B2F5004F02D0B2F5806F03D11A68BE
:1054300022F040021A60A26AB2F5005F07D11A6832
:1054400022F400521A601A6842F400521A600123D2
:1054500084F85130002384F85030032002B0BDE8B6
:10546000F087019A019B002A03F1FF33019308BFE3
:105470001546B9E774000020F0B585B00B460092E0
:105480000E461746022101220446FFF799FF054602
:1054900028B1636D43F020036365032515E0124BCB
:1054A0001868124BB0FBF3F04FF47A7358436368FB
:1054B0000390B3F5827F0BD1009733462A468021B3
:1054C0002046FFF77DFF0028E3D1284605B0F0BD58
:1054D000039B002BF9D0039B013B039323689B683C
:1054E0001B06F5D4F1E700BF7400002000366E0102
:1054F00037B50B464168B1F5827F044608D000926B
:1055000001210022FFF75CFFD0B9002003B030BDBD
:105510008168B1F5004F02D0B1F5806F07D12568E1
:105520002868B1F5806F20F04000286004D0009218
:10553000802100222046E5E7009201210022F9E7C0
:10554000636D43F0200363650320DFE710B5044675
:10555000002855D0436A002B4ED14268B2F5827FB5
:1055600000D0C3610023A36294F8513003F0FF021E
:1055700023B984F850202046FCF780FE2168A068FB
:10558000A269022384F851300B6823F040030B60BA
:10559000636800F4044003F482730343E06800F49A
:1055A00000600343206900F002000343606900F0DB
:1055B0000100034302F400700343E06900F0380087
:1055C0000343206A00F080000343A06A00F4005007
:1055D00003430B60636A120C03F0100302F0040231
:1055E0001A434A60CB6923F40063CB610020012396
:1055F000606584F8513010BD0023C0E90433B1E781
:105600000120F8E72DE9F74304461F460D46904672
:10561000FDF724FF94F85130012B8146D8B240F0B9
:105620009F80002D74D0B8F1000F71D094F85030E5
:10563000012B00F09580032384F85130002363652B
:10564000C4E91033A4F83680A363A387E387A36873
:10565000266884F85000B3F5004F2563A4F8348021
:1056600007D1336823F040033360336843F4804349
:1056700033603368E2685B065EBF336843F0400323
:105680003360B2F5006F636845D113B1B8F1010F13
:1056900007D135F8023BF3602563E38E013B9BB2F3
:1056A000E386E38E9BB2D3B94A4639462046FFF7DC
:1056B000E3FE002851D1A36833B901932368DA6867
:1056C00001929B680193019B012384F85130606D26
:1056D0000023C01A84F8503018BF012018E0226857
:1056E0009368980705D5236B33F8021BD1602363B9
:1056F000D3E7FDF7B3FEA0EB0900B842D1D3791C84
:10570000CFD0012384F85130002384F85030032097
:1057100003B0BDE8F08313B1B8F1010F08D12B78C5
:105720003373236B01332363E38E013B9BB2E38628
:10573000E38E9BB2002BB7D023689A68920703D5FB
:10574000226B12781A73ECE7FDF788FEA0EB0900D4
:10575000B842EDD37B1CEBD0D3E720236365AAE7E7
:105760000220D5E72DE9F74304460D4691461E4633
:10577000DDF82880FDF772FE94F851306268012B45
:105780000746D9B20AD0B2F5827F40F0E580A3681F
:10579000002B40F0E180042940F0DE80002D4BD04A
:1057A000B9F1000F48D0002E46D094F85030012BAC
:1057B00000F0D280012384F8503094F85130C4F8BE
:1057C0003890042B1CBF052384F8513000236365F7
:1057D000C4E910332368E687E6861968A687490678
:1057E00058BF1968256358BF41F04001A68658BFCD
:1057F0001960E168B1F5006F55D10AB1012E07D1EA
:1058000035F8022BDA60E38E2563013B9BB2E38619
:105810000125E38E9BB28BB9E38F9BB273B93A46F5
:1058200041462046FFF728FE002800F08180202313
:105830006365002384F85030012031E021688B68D3
:105840009A070DD5E38E9BB253B145B1236B33F864
:10585000022BCA602363E38E013B9BB2E3860025E3
:105860008A6812F001020CD0E38F9BB24BB1A36B9C
:10587000C96823F8021BA363E38F013B9BB2E38754
:105880001546FDF7EBFDC01B4045C2D3B8F1FF3F05
:10589000BFD0012384F85130002384F85030032016
:1058A00003B0BDE8F0830AB1012E08D12A781A733B
:1058B000236B01332363E38E013B9BB2E386012517
:1058C0002DE0226893689B070ED5E38E9BB25BB1F7
:1058D0004DB1236B1B781373236B01332363E38E6A
:1058E000013B9BB2E38600252268916811F001011B
:1058F0000DD0E38F9BB253B1A36BD2681A70A36B28
:105900000133A363E38F013B9BB2E3870D46FDF7B1
:10591000A5FDC01B404502D3B8F1FF3FB9D1E38ECE
:105920009BB2002BCDD1E38F9BB2002BC9D176E780
:10593000A36833B901932368DA6801929B680193E5
:10594000019B012384F85130606D0023C01A84F854
:10595000503018BF0120A3E70220A1E72DE9F7434B
:105960001E4690F85130012B044689461746DDB299
:1059700004D00225284603B0BDE8F0834368B3F5A0
:10598000827F0BD183684BB9042380F851301346D2
:1059900000960A46FFF7E6FE0546EBE7FDF75EFDDB
:1059A0008046B9F1000FE5D0002FE3D094F85030D5
:1059B000012BDED0A268C4F838900123002584F8BA
:1059C0005030B2F5004F4FF0040384F85130C4E971
:1059D000105565652368E787A7872563A586E58653
:1059E00007D11A6822F040021A601A6822F4804235
:1059F0001A601A6855065EBF1A6842F040021A60C3
:105A0000E368F3B1E38F9BB2FBB123689A68D207D6
:105A10003CD5DA68A36B23F8022BA363E38F013B29
:105A20009BB2E387EEE723689A68D0071ED5A26B86
:105A30001B7B1370A36B0133A363E38F013B9BB20A
:105A4000E387E38F9BB2002BEDD1424631462046DF
:105A5000FFF74EFD18BB012384F85130656D00231C
:105A6000ED1A84F8503018BF012583E7FDF7F6FCE6
:105A7000A0EB0800B042E4D3711CE2D0012384F80B
:105A80005130002384F85030032573E7FDF7E6FC1E
:105A9000A0EB0800B042B5D3731CB3D0EEE72023CF
:105AA0006365D8E790F83D30012B30D1022380F8B0
:105AB0003D300368DA6842F00102DA60154A934229
:105AC0001AD0B3F1804F17D0A2F57C42934213D085
:105AD00002F5806293420FD002F5806293420BD0B0
